:10000000D4C0000002C1000000C10000FEC000001A
:10001000FCC00000FAC00000F8C00000F6C00000FC
:10002000F4C00000F2C00000F0C00000EEC000000C
:10003000ECC00000EAC00000E8C00000E6C000001C
:10004000E4C00000E2C00000E0C00000DEC000002C
:10005000DCC00000DAC00000D8C00000B7C4000057
:10006000D4C000005BC700008FC70000CEC00000F6
:10007000CCC00000CAC00000C8C00000C6C000005C
:10008000C4C00000C2C00000C0C00000BEC000006C
:10009000BCC00000BAC00000B8C00000B6C000007C
:1000A000B4C00000B2C00000B0C00000AEC000008C
:1000B000ACC00000AAC00000A8C00000A6C000009C
:1000C000A4C00000A2C00000A0C000009EC00000AC
:1000D0009CC000009AC0000098C0000096C00000BC
:1000E00094C00000010210202008081020401020B9
:1000F00040800201020108040201010204081020EC
:1001000040808040201008040201800402018040E9
:100110002010080402010804020101020408102052
:1001200040800102040810204080050505050705F0
:1001300008080808020202020A0A08080404040463
:10014000010101010101010103030303030303038F
:10015000040707070C0C0C0C0C0C0C0C020202021E
:1001600006060606060606060B0B0B0B0B0B0B0B07
:1001700000002200250028002B002E003100340052
:1001800002010000050108010B010000210024000C
:1001900027002A002D003000330001010000040177
:1001A00007010A01DD014D03F60711241FBECFEF41
:1001B000D1E2DEBFCDBF00E00CBF12E0A0E0B2E0B4
:1001C000E8E6F5E100E00BBF02C007900D92A6390A
:1001D000B107D9F723E0A6E9B2E001C01D92A03A29
:1001E000B207E1F711E0CAEAD1E000E006C02297C9
:1001F0000109FE010BBF0E948709C43AD10780E0C4
:100200000807A9F737D70C94B20AFACE40ED57E0A9
:1002100060E070E08BEA92E09AD120E835E240E0BD
:1002200050E06FEF72E08BEA92E0A6D161E08BEADA
:1002300092E066D1882379F068E072E08091ED0267
:100240009091EE0261D76AE070E080E090E037D4F0
:100250008BEA92E07BD141E060E08BEA92E000D251
:100260006091070280910602E0C2CF92DF92EF9286
:10027000FF920F931F93CF93DF9300D01F921F9293
:10028000CDB7DEB7EDD3672B682B692B31F4E8D3FC
:100290006230710581059105A8F18BEA92E0A4D046
:1002A00060939602709397028093980290939902BC
:1002B00000919A0210919B0220919C0230919D0224
:1002C000601771078207930740F460939A02709356
:1002D0009B0280939C0290939D0200919A02109140
:1002E0009B0220919C0230919D026B017C01C01AFF
:1002F000D10AE20AF30A970186010A3F1105210596
:100300003105A0F48FEF92E09AD403970CF447C024
:1003100080910602F5D2922FE42F752F862F20911F
:100320000702492F532F6E2FB4D239C060939A021F
:1003300070939B0280939C0290939D0244EF51E046
:1003400060E070E08BEA92E050D061E08BEA92E0EE
:10035000D7D08823D9F061E08BEA92E061D06AE1DE
:1003600072E08091ED029091EE02CED679D3AB018E
:10037000BC012AE030E08091ED029091EE0293D72B
:100380008BEA92E0AAD08BEA92E0E0D062E070E0E3
:1003900080E090E094D38BEA92E0A7D0B3CF0F90A7
:1003A0000F900F900F900F90DF91CF911F910F91B1
:1003B000FF90EF90DF90CF9008958FEF80939E0293
:1003C0001092A00210929F021092AA021092A9020B
:1003D0008FEF9FEFDC018093A5029093A602A0937C
:1003E000A702B093A80208953BC3CF93DF93EC011B
:1003F0004E875F87688B798B1A8A1B8A1C8A1D8AB5
:100400004E815F81688579854A875B876C877D87A8
:1004100027D36E837F8388879987DF91CF91089553
:10042000BF92CF92DF92EF92FF920F931F93CF93E1
:10043000DF938C01B62E14D36B017C01E801CE5BF7
:10044000DF4F6CE172E0888199815ED64AE050E02E
:100450006B2D8881998133D763E272E0888199811D
:1004600053D62AE030E0B701A601888199811BD7D5
:1004700065E272E08881998147D6F801868197818B
:10048000A085B185B701A601481B590B6A0B7B0BF0
:100490002AE030E08881998106D765E272E08881A0
:1004A000998132D6F80146815781608571858285B0
:1004B0009385A485B585481B590B6A0B7B0B2AE0F5
:1004C00030E088819981DF91CF911F910F91FF904A
:1004D000EF90DF90CF90BF90E6C68E5B9F4F67E2B4
:1004E00072E0FC018081918129C6CF93DF93EC01FA
:1004F000B7D26E837F8388879987DF91CF910895E4
:100500000F931F93CF93DF93EC01611114C0A8D216
:100510000A811B812C813D81601B710B820B930B27
:10052000613271058105910530F463E070E080E08F
:1005300090E0C5D2ECCF94D26A837B838C839D8379
:1005400081E0DF91CF911F910F9108950895FC01F3
:10055000EC5BFF4F1082118212821382FC01128227
:10056000138214821582411551056105710519F038
:10057000CB01BA01A4C20895FB01BA01A9018E5BA7
:100580009F4FDC01ED93FC9326E0CF0167C48E5BA7
:100590009F4FDC018D919C91DC01ED91FC910680D7
:1005A000F781E02D199508958E5B9F4FDC018D91A9
:1005B0009C91DC01ED91FC910480F581E02D199571
:1005C00008951F93CF93DF93EC01162F49D26A83CE
:1005D0007B838C839D83CE5BDF4F6EE272E08881EC
:1005E000998192D54AE050E0612F8881998167D640
:1005F00065E372E08881998187D562E370E080E0ED
:1006000090E0DF91CF911F915AC21F93CF93DF9358
:10061000EC01162F8E898823F1F0CE01C5DF811100
:1006200002C085E619C0CE01BFDF8823D1F3CE0119
:10063000AEDF883681F040F4883561F0833699F773
:10064000612FCE01BEDF07C0813729F0863759F709
:1006500086E702C01E8A83E6DF91CF911F9108953D
:100660000F931F93CF93DF931F92CDB7DEB78C010B
:10067000611108C0F801468B0F90DF91CF911F9157
:100680000F91089581E0F801868B60E0C8014983ED
:10069000BCDF49818336C9F7EDCF1092B1021092C9
:1006A000B2021092B3021092B4021092B5021092EC
:1006B000B6021092B7021092B8021092B9021092CC
:1006C000BA021092BB021092BC021092BD021092AC
:1006D000BE021092BF021092C0020895FF920F93C3
:1006E0001F93CF93DF938C012091F50230E02F5FB1
:1006F0003F4F89E0482F429FC001439F900D112436
:10070000C3D4EC0120E049E03091F5028091F3027E
:100710009091F402231780F439E0239FF001112413
:10072000DE01AE0FBF1FE80FF91F842F01900D925D
:100730008A95E1F72F5FE8CFF801F0802281DE0192
:10074000F9E03F9FA00DB11D11242C931196FC924E
:10075000119713961C92139714961C9296D490910D
:10076000F5029F5F9093F502D093F402C093F302D9
:1007700061E08F2DDF91CF911F910F91FF9026C2E5
:10078000CF93DF9300D01F921F92CDB7DEB77C834B
:100790008D83523051F48C819D810F900F900F907A
:1007A0000F900F90DF91CF9199CF0F900F900F90F6
:1007B0000F900F90DF91CF9108950F931F93CF93D8
:1007C000DF9300D01F921F92CDB7DEB749835A83C3
:1007D0006B837C838D83642F8FEF92E0DBD26A8101
:1007E0008FEF92E0D7D200E010E08B8190E0081705
:1007F00019075CF4EC81FD81E00FF11F60818FEF40
:1008000092E0C8D20F5F1F4FF0CF4AE050E060E0A7
:1008100070E08FEF92E00F900F900F900F900F907D
:10082000DF91CF911F910F9137C5EF92FF920F93F8
:100830001F93CF93DF9300D01F921F92CDB7DEB7E7
:10084000F82EE62E26E040E855E260E070E08FEFFB
:1008500092E004D3F982FA8281E090E015D48C0111
:10086000FE0CFC01F082782F9D838C8320E049816F
:100870005A8161E08D81A1DFC8010F900F900F9028
:100880000F900F90DF91CF911F910F91FF90EF90FC
:10089000FCC31F93CF93DF9300D01F921F92CDB75D
:1008A000DEB7142F49835A836B837C838D83421771
:1008B00011F04F3F59F449815A816B817C818D81C0
:1008C0005FDF1F3FA1F421E0498104C04111FBCF4C
:1008D00020E040E05A816B817C818D810F900F90E8
:1008E0000F900F900F90DF91CF911F9166CF0F90D7
:1008F0000F900F900F900F90DF91CF911F9108955F
:100900009F92AF92BF92CF92DF92EF92FF920F939E
:100910001F93CF93DF9300D01F921F92CDB7DEB706
:10092000C82E8FEF92E08BD103970CF43DC08FEF70
:1009300092E09ED1A82EAC188FEF92E099D1E82ECC
:10094000EC1882E0E81651F0E81618F0E3E0EE1239
:1009500003C0FF24F39404C0F12C02C083E0F82EFE
:100960000F2D10E08FEF92E06AD180179107D4F33A
:10097000C8018AD3D82EB92E982E082F192F802F70
:1009800089198F1541F08FEF92E072D18C19F8011F
:1009900081938F01F4CF2A2D3E2D4F2D5D2D6B2D90
:1009A00070E080E090E000C00F900F900F900F90EB
:1009B0000F90DF91CF911F910F91FF90EF90DF90FB
:1009C000CF90BF90AF909F90089508951F920F927F
:1009D0000FB60F9211242F933F938F939F93AF9352
:1009E000BF938091F7029091F802A091F902B09123
:1009F000FA023091F60223E0230F2D3720F40196FE
:100A0000A11DB11D05C026E8230F0296A11DB11D31
:100A10002093F6028093F7029093F802A093F902D4
:100A2000B093FA028091FB029091FC02A091FD022A
:100A3000B091FE020196A11DB11D8093FB0290931F
:100A4000FC02A093FD02B093FE02BF91AF919F9173
:100A50008F913F912F910F900FBE0F901F9018957F
:100A60002FB7F8946091F7027091F8028091F90223
:100A70009091FA022FBF08953FB7F8948091FB023E
:100A80009091FC02A091FD02B091FE0226B5A89BB8
:100A900005C02F3F19F00196A11DB11D3FBF66276C
:100AA000782F892F9A2F620F711D811D911D42E0B1
:100AB000660F771F881F991F4A95D1F70895CF9227
:100AC000DF92EF92FF92CF93DF936B017C01D4DF33
:100AD000EB01C114D104E104F10479F076DFCCDF3D
:100AE0006C1B7D0B683E7340A0F381E0C81AD108EF
:100AF000E108F108C851DC4FECCFDF91CF91FF90B6
:100B0000EF90DF90CF900895789484B5826084BD93
:100B100084B5816084BD85B5826085BD85B5816001
:100B200085BDEEE6F0E0808181608083E1E8F0E061
:100B30001082808182608083808181608083E0E890
:100B4000F0E0808181608083E1EBF0E0808184606F
:100B50008083E0EBF0E0808181608083E1E9F0E078
:100B6000808182608083808181608083E0E9F0E021
:100B7000808181608083E1EAF0E08081826080830F
:100B8000808181608083E0EAF0E080818160808301
:100B9000E1E2F1E0808182608083808181608083F6
:100BA000E0E2F1E0808181608083EAE7F0E080812B
:100BB0008460808380818260808380818160808383
:100BC0008081806880831092C1000895CF93DF9365
:100BD00090E0FC01EC51FF4F2491FC01E65DFE4FDB
:100BE0008491882349F190E0880F991FFC01E65712
:100BF000FE4FA591B49180599E4FFC01C591D491AF
:100C00009FB7611108C0F8948C91209582238C9332
:100C1000888182230AC0623051F4F8948C91322F7B
:100C2000309583238C938881822B888304C0F89429
:100C30008C91822B8C939FBFDF91CF910895FC0103
:100C4000818D228D90E0805C9F4F821B91098F7374
:100C500099270895FC01918D828D981731F0828D2E
:100C6000E80FF11D858D90E008958FEF9FEF0895B7
:100C7000FC01918D828D981761F0828DDF01A80FA4
:100C8000B11D5D968C91928D9F5F9F73928F90E0C6
:100C900008958FEF9FEF08958DEE97E0892B39F03F
:100CA00080E090E0892B19F098D1811125C080E077
:100CB00090E0892B41F080E090E0892B21F00E94A8
:100CC000000081111CC080E090E0892B41F080E0A1
:100CD00090E0892B21F00E940000811113C080E078
:100CE00090E0892BA1F080E090E0892B81F00E94B8
:100CF000000081110AC008950E940000D8CF0E9410
:100D00000000E1CF0E940000EACF0C94000008959B
:100D1000FC01848DDF01A80FB11DA35ABF4F2C9198
:100D2000848D90E001968F739927848FA689B78967
:100D30002C93A089B1898C9180648C93938D848D40
:100D4000981306C00288F389E02D80818F7D80830F
:100D50000895CF93DF93EC01888D8823C1F0EA8951
:100D6000FB89808185FD05C0A889B9898C9186FDA4
:100D70000EC00FB607FCF5CF808185FFF2CFA889A2
:100D8000B9898C9185FFEDCFCE01C2DFE8CFDF912D
:100D9000CF910895CF92DF92FF920F931F93CF933D
:100DA000DF931F92CDB7DEB76C01DC015B969C919F
:100DB0005B975C968C915C97981307C05096ED9169
:100DC000FC915197808185FD31C0F601038D10E0C3
:100DD0000F5F1F4F0F731127F02EF601848DF8124D
:100DE00010C00FB607FCF9CFD6015096ED91FC91DB
:100DF0005197808185FFF1CFC601698389DF6981C1
:100E0000ECCF838DE80FF11DE35AFF4F6083D601CD
:100E10005B960C935B975296ED91FC915397808172
:100E20008062808381E058968C930DC0D6015696DF
:100E3000ED91FC91579760835096ED91FC915197FD
:100E400080818064808381E090E00F90DF91CF917A
:100E50001F910F91FF90DF90CF900895BF92CF9296
:100E6000DF92EF92FF92CF93DF93EC016A017B0157
:100E7000B22EE889F98982E08083411581EE580716
:100E80006105710599F060E079E08DE390E0A701DC
:100E900096011BD2215031094109510956954795B8
:100EA00037952795211580E1380790F0E889F98971
:100EB000108260E874E88EE190E0A701960105D207
:100EC0002150310941095109569547953795279584
:100ED000EC85FD853083EE85FF852083188EEC89B7
:100EE000FD89B082EA89FB89808180618083EA89FB
:100EF000FB89808188608083EA89FB8980818068A2
:100F00008083EA89FB8980818F7D8083DF91CF9107
:100F1000FF90EF90DF90CF90BF9008951F920F92B7
:100F20000FB60F9211240BB60F922F938F939F93AE
:100F3000EF93FF93E0910F03F09110038081E09114
:100F40001503F091160382FD12C090818091180361
:100F50008F5F8F7320911903821751F0E09118036E
:100F6000F0E0E150FD4F958F8093180301C0808120
:100F7000FF91EF919F918F912F910F900BBE0F904A
:100F80000FBE0F901F9018951F920F920FB60F92E1
:100F900011240BB60F922F933F934F935F936F9350
:100FA0007F938F939F93AF93BF93EF93FF938FEFB5
:100FB00092E0AEDEFF91EF91BF91AF919F918F9143
:100FC0007F916F915F914F913F912F910F900BBE49
:100FD0000F900FBE0F901F9018958FEF92E02FDEAD
:100FE00021E0892B09F420E0822F0895109202035A
:100FF0001092010388EE93E0A0E0B0E08093030339
:1010000090930403A0930503B09306038AE892E04B
:10101000909300038093FF0285EC90E090930C0383
:1010200080930B0384EC90E090930E0380930D0368
:1010300080EC90E09093100380930F0381EC90E09C
:10104000909312038093110382EC90E09093140329
:101050008093130386EC90E090931603809315031E
:10106000109218031092190310921A0310921B0386
:101070000895089549DDFDDFC9D8CCE4D6E0F5D860
:101080002097E9F309DEFBCF46C1DDC1CF92DF92A5
:10109000EF92FF920F931F93CF93DF936C017A012E
:1010A000EB01E60EF71E00E010E0CE15DF0561F063
:1010B0006991D601ED91FC910190F081E02DC6017E
:1010C0001995080F191FF1CFC801DF91CF911F911A
:1010D0000F91FF90EF90DF90CF900895611571050B
:1010E00081F0DB010D900020E9F7AD01415051097D
:1010F000461B570BDC01ED91FC910280F381E02D42
:10110000199480E090E00895E9CFDC01ED91FC9125
:101110000190F081E02D19940F931F93CF93DF93EB
:10112000EC016DE0F2DF8C016AE0CE01EEDF800FB2
:10113000911FDF91CF911F910F9108950F931F93EE
:10114000CF93DF93EC01CADF8C01CE01E5DF800F86
:10115000911FDF91CF911F910F9108958F929F92D0
:10116000AF92BF92CF92DF92EF92FF920F931F93B5
:10117000CF93DF93CDB7DEB7A1970FB6F894DEBF5C
:101180000FBECDBF7C01C42EE52FCB01D22E19A2FC
:1011900021E02D1510F02AE0D22E8E010F5D1F4F99
:1011A0008D2C912CA12CB12C6C2D7E2FA50194019E
:1011B0008CD08C2DD29E80191124015011098A30B7
:1011C00014F4805D01C0895CF8018083211531052C
:1011D0004105510521F0C22EE32FCA01E5CFB80128
:1011E000C7017CDFA1960FB6F894DEBF0FBECDBF5E
:1011F000DF91CF911F910F91FF90EF90DF90CF90F3
:10120000BF90AF909F908F900895CF92DF92EF9212
:10121000FF920F931F93CF93DF93EC016A017B0141
:101220002115310579F4E881F9810190F081E02DF3
:10123000642FDF91CF911F910F91FF90EF90DF907E
:10124000CF9019942A303105D9F477FF18C06DE298
:101250005CDF8C0144275527BA014C195D096E09E2
:101260007F092AE0CE017ADF800F911FDF91CF91B5
:101270001F910F91FF90EF90DF90CF9008952AE09B
:10128000B701A601CE01DF91CF911F910F91FF9081
:10129000EF90DF90CF9062CF9A01AB01662757FDA8
:1012A0006095762FB2CF2115310541F4DC01ED9127
:1012B000FC910190F081E02D642F19944FCF9A0199
:1012C000462F50E060E070E0EECFA1E21A2EAA1B9C
:1012D000BB1BFD010DC0AA1FBB1FEE1FFF1FA217E6
:1012E000B307E407F50720F0A21BB30BE40BF50BE3
:1012F000661F771F881F991F1A9469F7609570956C
:10130000809590959B01AC01BD01CF010895079098
:10131000F691E02D1994CF93DF938230910510F46C
:1013200082E090E0E0919E03F0919F0320E030E0A6
:10133000A0E0B0E0309739F140815181481759075A
:10134000B8F04817590771F482819381109729F0FA
:1013500013969C938E9312972CC090939F03809327
:101360009E0327C02115310531F04217530718F0AD
:10137000A901DB0101C0EF019A01BD01DF0102807B
:10138000F381E02DD7CF21153105F9F0281B390B5A
:101390002430310580F48A819B816115710521F02B
:1013A000FB019383828304C090939F0380939E03E9
:1013B000FE01329644C0FE01E20FF31F8193919328
:1013C00022503109398328833AC020919C033091FF
:1013D0009D03232B41F420910202309103023093AC
:1013E0009D0320939C03209100023091010221155E
:1013F000310541F42DB73EB74091040250910502EA
:10140000241B350BE0919C03F0919D03E217F30739
:10141000A0F42E1B3F0B2817390778F0AC014E5F64
:101420005F4F2417350748F04E0F5F1F50939D0301
:1014300040939C038193919302C0E0E0F0E0CF01E0
:10144000DF91CF910895CF93DF93009709F487C080
:10145000FC01329713821282C0919E03D0919F03A8
:10146000209781F420813181280F391F80919C03BE
:1014700090919D038217930779F5F0939D03E09374
:101480009C036DC0DE0120E030E0AE17BF0750F4D2
:1014900012964D915C9113979D014115510509F1EB
:1014A000DA01F3CFB383A28340815181840F951F6A
:1014B0008A179B0771F48D919C911197840F951F4A
:1014C00002969183808312968D919C9113979383BA
:1014D00082832115310529F4F0939F03E0939E0345
:1014E0003EC0D9011396FC93EE9312974D915D91F6
:1014F000A40FB51FEA17FB0779F480819181840F4F
:10150000951F0296D90111969C938E9382819381A7
:1015100013969C938E931297E0E0F0E08A819B8172
:10152000009719F0FE01EC01F9CFCE010296288157
:101530003981820F931F20919C0330919D032817BE
:10154000390769F4309729F410929F0310929E0393
:1015500002C013821282D0939D03C0939C03DF913B
:08156000CF910895F894FFCF2C
:101568000000A00380003001564D4450565F317C86
:10157800315F564D4450560D0A007C00564D44507C
:10158800455F003A323A005F564D44504500564D8B
:101598004450435F005F564D4450430D0A00457266
:1015A800726F723A20417474656D707420746F2084
:1015B800736574206120726561642D6F6E6C79208B
:1015C8007661726961626C65206F72206461746112
:1015D8002074797065206E6F7420737570706F72E7
:1015E8007465640D0A0000000000CA0646081F065C
:0615F80038062A06A906D0
:00000001FF
